:020000040800F2
:1000000088060020E11F0008490300084B03000890
:100010004F030008530300085703000800000000C6
:100020000000000000000000000000005B0300086A
:100030005D030008000000005F0300086103000882
:10004000FB1F0008FB1F0008FB1F0008FB1F000828
:10005000FB1F0008FB1F0008891F0008FB1F00088A
:10006000FB1F0008FB1F0008FB1F0008FB1F000808
:10007000FB1F0008FB1F0008FB1F0008FB1F0008F8
:10008000FB1F0008FB1F0008FB1F0008FB1F0008E8
:10009000FB1F0008FB1F0008FB1F0008FB1F0008D8
:1000A000FB1F0008FB1F0008FB1F0008FB1F0008C8
:1000B000FB1F0008A7090008FB1F0008FB1F000822
:1000C000FB1F0008FB1F0008FB1F0008FB1F0008A8
:1000D000FB1F0008331200085D130008FB1F000817
:1000E000AF1F0008FB1F0008FB1F0008FB1F0008D4
:1000F000FB1F0008FB1F0008FB1F0008FB1F000878
:10010000FB1F0008FB1F0008FB1F0008FB1F000867
:10011000FB1F0008FB1F0008FB1F0008FB1F000857
:10012000FB1F0008FB1F0008FB1F0008FB1F000847
:10013000DFF80CD004F0CAF900480047FD020008BF
:1001400088060020704710B50224204600F04FFCBE
:1001500010BD2DE9FE4F05260027304600F04FFC6C
:1001600032465C495C4800F0C5FF5C4948685C4920
:1001700004F076F805D3594948685A4904F066F8FE
:1001800002D2002425462AE057480068574A0090CA
:100190005168524A01AB506802AA00F09CFC5448D6
:1001A000B0F9000003F0FCFF82464A4801684A4863
:1001B000006803F0F7FD83464E4903F02BFE8146AD
:1001C000514603F09DFD804603F0F8FF07B2BDF8ED
:1001D0000800384404B2BDF80400C01B05B26942EF
:1001E000204600F07DFFBDE8FE8F10B500F04CFE0C
:1001F00010BD7047704700203F49088048808880C4
:10020000C880088148818881704710B53A480088C5
:10021000012836D1FFF796FF3748B0F902000228CF
:1002200004DB002034494880FFF78DFF3248B0F9E5
:100230000400052804DB00202F498880FFF789FF90
:100240002D48B0F906000A2804DB00202A49C8809E
:10025000FFF7CBFF2848B0F90800142804DB002082
:1002600025490881FFF7C5FF2348B0F90A00322865
:1002700004DB002020494881FFF7BCFF00201E4915
:10028000088010BD1C484088401C00B21A494880B4
:1002900008468088401C00B288800846C088401C00
:1002A00000B2C88008460089401C00B20881084698
:1002B0004089401C00B2488108460088012804D1CA
:1002C00008468089401C00B2888101200A490880C4
:1002D00070470000040000200000002050020020B1
:1002E00000007041000070C108000020440200209E
:1002F0000C0000200000C0408800002000F02AFF11
:10030000074908600846006818B106A004F018F90B
:1003100002E009A004F014F901E0FFF776FFFCE722
:1003200010000020D3B2BCFEB3F5CABCBBAFB4E62C
:10033000D4DACECACCE20A00D3B2BCFEB3F5CABC52
:10034000BBAFD5FDB3A30A00704700BFFEE700BFF7
:10035000FEE700BFFEE700BFFEE77047704770474B
:1003600010B5FFF78FFF10BD002242608260754A12
:10037000C260754A02614FF07C52426101220276EE
:100380000022C261026242628262C262026342630E
:100390008263C263002105E0002300F1400242F8BD
:1003A0002130491C0429F7DB4FF07E5202650023FF
:1003B000436583651346C36570472DE9F0470446DE
:1003C0000D4616461F46384603F0F3FE81465F4948
:1003D000484603F01FFD81462846E16903F0E2FC30
:1003E0008246494603F0E4FC8046616803F088FCDD
:1003F0006060616DE06803F0D5FC8046A16D03F09C
:10040000D1FC2064E06D80F000416164E06D80F01B
:100410000041A1642169E1644946206C03F0C8FCF5
:100420008046216D03F06CFC20654946606C03F04A
:10043000BFFC8046616D03F063FC60654946A06CBB
:1004400003F0B6FC8046A16D03F05AFCA065494656
:10045000E06C03F0ADFC8046E16D03F051FCE0651B
:10046000207E03F0A6FE8046216D03F0A1FC6062B1
:10047000207E03F09EFE8046616D03F099FCA06231
:10048000207E03F096FE8246616A03F091FC80466E
:10049000616903F035FCE062E16A606A03F0BAFC6E
:1004A000A063D4E90A0103F0B5FCE063304661685B
:1004B00003F078FC2062216AA06B03F079FC80468F
:1004C000616803F01DFC6060216AE06B03F070FC62
:1004D0008046E16903F014FCE0612846E16903F01D
:1004E00061FCA060606A2063207E03F062FE8046AB
:1004F000616D03F05DFC6063216BA06B03F058FC41
:100500008046216D03F051FC2065D4E90D1003F005
:100510004FFC8046616D03F048FC6065216BE06B29
:1005200003F046FC8046A16D03F03FFCA065616BC3
:10053000E06B03F03DFC8046E16D03F036FCE065C6
:10054000BDE8F0876F12833AA69B443B00007A44D3
:1005500010B50446204600F0F9FF10BD2DE9F04724
:1005600004460D46B4F91A0003F01AFE8146C94844
:100570000168484603F016FC0746284603F019FEBA
:100580008146C54903F014FC8046394603F010FC4F
:100590000646C0480168304603F0B2FBBD4908601A
:1005A000BE49BC48006803F035FC0646BC4903F070
:1005B000A7FBBDE8F0872DE9F04786B082460C46E0
:1005C0000020039004900590009001900290B5489F
:1005D000006800EB400104F1340000EB4100DAF860
:1005E0000E100160BAF812108180AE48006800EB6E
:1005F000400104F1700000EB4100DAF814100160D2
:10060000BAF818108180A7480068401CA549086006
:1006100008460068092801DD002008604FF0000945
:1006200057E009EB490204F1340131F9120003F0FB
:10063000B7FD0546039903F063FB039009EB4902FC
:1006400004F1340101EB4201B1F9020003F0A8FD0D
:100650000546049903F054FB049009EB490204F1A8
:10066000340101EB4201B1F9040003F099FD0546A4
:10067000059903F045FB059009EB490204F170016F
:1006800031F9120003F08CFD0546009903F038FBA8
:10069000009009EB490204F1700101EB4201B1F94C
:1006A000020003F07DFD0546019903F029FB01904E
:1006B00009EB490204F1700101EB4201B1F90400B8
:1006C00003F06EFD0546029903F01AFB029009F152
:1006D0000109B9F10A0FA4DB039803F088FD07466E
:1006E0000022714B03F0EDFC054603F093FD206002
:1006F000049803F07CFD074600226B4B03F0E1FCFD
:10070000054603F087FD6060059803F070FD07461D
:100710000022654B03F0D5FC054603F07BFDA0608D
:10072000009803F064FD054600225F4B03F0C9FC0E
:10073000074603F06FFDE060019803F058FD0546A1
:100740000022594B03F0BDFC074603F063FD206116
:10075000029803F04CFD05460022534B03F0B1FC18
:10076000074603F057FD60615049206803F020FB05
:10077000E0614E49606803F01BFB20624B49A068B2
:1007800003F016FB60624A49E06803F011FBA062C7
:100790004749206903F00CFBE0624549606903F0BA
:1007A00007FB206306B0BDE8F0872DE9F04106465F
:1007B0000C461546304600F025FF21463046FFF72F
:1007C000FAFE29463046FFF7C9FE074603F0F6FC5D
:1007D00000B22083BDE8F0812DE9FF5F0446894621
:1007E000206803F004FDCDE90201606803F0FFFC1E
:1007F000CDE90001DDE9022304F0A2FC0746002256
:100800002C4B03F0ECFB05462B4A2C4B03F059FC18
:10081000824603F0FFFCC9F80800606803F0E7FCBB
:1008200007468846A06803F0E2FC82463A46434603
:1008300004F086FC00221F4BCDE9000103F0CFFB42
:1008400005461D4A1D4B03F03CFCCDE9020103F0B7
:10085000E1FCC9F80000A06803F0C9FCCDE9000183
:10086000206803F0C4FC0546DDE9002304F068FCC1
:10087000074600220F4B03F0B2FB82460E4A0F4B95
:1008800003F01FFCCDE9020103F0C4FCC9F8040029
:10089000BDE8FF9F14000020C3F5C8400000AA4334
:1008A000000012421800002000002440F700753EAE
:1008B000FD007A3D00806640F1D4C853FB21094019
:1008C00005E0062100BF0A1EA1F10101FBD1021EB5
:1008D000A0F10100F5D1704710B504462046FFF79E
:1008E000EFFF10BD06E04FF4E15100BF0A1EA1F179
:1008F0000101FBD1021EA0F10100F4D1704710B537
:1009000004462046FFF7EEFF10BD1FB5012102206F
:1009100002F08DF840F2E730ADF808004720ADF85E
:1009200004000020ADF80A00ADF8060001A9234834
:1009300002F0A8F90021214802F000FD0122114631
:100940001E4802F016FD1D208DF800004FF4C06017
:1009500001F048FC02208DF801008DF80200012012
:100960008DF80300684601F042FC1FBD10B5002061
:100970001249243108800121104802F0DFFC10BD2B
:1009800010B50E48243000880D4909684FF47A727A
:1009900002FB01040021094802F0D0FC00200849B4
:1009A0000860204610BD10B50121044802F08CFFFC
:1009B00003480068401C0249086010BD0004004064
:1009C0001C00002010B500202F4908604860886096
:1009D0002E490860486088602D490860486088603A
:1009E0002C48FFF7C1FC2C48FFF7BEFC10BD10B52A
:1009F0000446224629492A48FFF7D7FE10BD10B504
:100A000004462648806A80F000401F490860234859
:100A1000C06A80F0004048602048006B80F00040D1
:100A200088601E48C069194908601C48006A48600F
:100A30001A48406A886016491448FFF7CDFE1448EA
:100A400002681148234601681248FFF7B6FC1048B7
:100A500042680D48234641680F48FFF7AEFC0D4839
:100A60008068104908600C48806848600948406800
:100A70000D490860084948680C49096803F040F9C5
:100A80000949486010BD0000200200202C0200200F
:100A90003802002060010020C0010020B4000020C6
:100AA0009800002044020020500200202000002076
:100AB000474848490860484848490860484908602C
:100AC0004848494908600020484908604FF07E5076
:100AD0004749086070472DE9FE4F0746884615468E
:100AE0001E46DDF830904946384603F05EF9029024
:100AF0003A480168029803F05BF982463D48016874
:100B0000504603F0FDF83B4908603B49394800680E
:100B100003F09CFB01D2384809E0384935480068A9
:100B200003F09EFB01D2354801E0324800683149AC
:100B3000086041462A48006803F03AF901902548C8
:100B40000299006803F034F900902A48016800987F
:100B500003F0D6F88346019903F024F9824603F0A6
:100B60002DFB04B22C803480BDE8FE8F2DE9FC5FA4
:100B700007460C4615461E46DDF83080384603F021
:100B80000FFB4146009003F00DF98146204603F02B
:100B900007FB4146009003F005F98246494612489A
:100BA000006803F005F9009003F008FB0FFA80FBE2
:100BB00051460D48006803F0FBF8009003F0FEFA80
:100BC00000B20190A5F800B001983080BDE8FC9F0C
:100BD0000000844224000020000040402800002043
:100BE0002C00002000006040300000203400002075
:100BF000380000203C00002000FEFFC600FEFF463B
:100C000010B500F0D5FA00F067FB10BD70B50446D2
:100C10000D46FD48006801280BD1E1B2FB4802F007
:100C2000A7FF00BF8021F94803F010F80028F9D091
:100C30000AE0E1B2F64802F09BFF00BF8021F448D1
:100C400003F004F80028F9D0204670BD10B5044622
:100C5000ED480068012807D100BF2021EB4802F0D1
:100C6000F5FF0028F9D006E000BF2021E84802F097
:100C7000EDFF0028F9D0E54802F07EFF10BD2DE918
:100C8000F04F8BB00446612C0ED1E248006803F0AF
:100C9000AEFA0746E04AE14B03F0FAF8054603F0E6
:100CA000B9FADC490860ECE0622C0ED1D948006842
:100CB00003F09DFA0746D84AD84B03F08AF9054657
:100CC00003F0A8FAD3490860DBE0632C03D10120CC
:100CD000D3490860D5E0642C03D10220D0490860D4
:100CE000CFE0652CDFD0392CDDDC302CDBDBCD48D0
:100CF000006805287ED2DFE800F0030C151E2700EF
:100D0000204603F04DFAC84908600120C549086033
:100D1000B6E0204603F04DFAC34948600220C149BD
:100D20000860ADE0204603F044FABF498860032024
:100D3000BC490860A4E0204603F03BFABA49C86009
:100D40000420B84908609BE0204603F032FAB64917
:100D500008610869B54903F025F8074603F047FA2A
:100D60000546B34AB34B03F03AF9CDE90601AE4963
:100D7000C868AE4903F016F8039003F038FA074646
:100D8000A54AAD4B03F02BF905460E46A6498868E7
:100D9000A64903F007F8A44903904868A34903F063
:100DA00001F8A649009003F003F880469E490868C0
:100DB0009E4902F0F7FFA249009002F0F9FF414678
:100DC000019002F09DFF0290039902F099FF0746FF
:100DD00003F00DFA82462A46334603F059F8CDE96E
:100DE0000401DDE9062303F053F8CDE9080103F01F
:100DF00011FA00E043E0814689480068012818D1D3
:100E00008F49484603F02CFA06D88D49484602F02F
:100E1000C9FF814689F000498A48006803F0E7F974
:100E200005462A460B4688A003F08AFB00207C4931
:100E300008607B48006802281DD18149484603F0BC
:100E40000FFA06D87E49484602F0ACFF814689F089
:100E500000498248B0F9000003F0A2F9064649466D
:100E600002F04EFF054603F0A9F900B27B49088065
:100E700000206B49086000206A49086000E000BF5C
:100E800000BF0BB0BDE8F08F75480068401C744986
:100E9000086008460068052804DD0020086001207D
:100EA0005949086070472DE9F04F8BB08246BAF17E
:100EB000700F05D100206B4908606B49086000E1A4
:100EC000BAF1690F06D10120664908600020664921
:100ED0000860F6E0BAF1640F06D1022061490860AB
:100EE000002061490860ECE0BAF1610F06D10320EF
:100EF0005C49086000205C490860E2E0BAF1390F03
:100F0000DDDCBAF1300FDADB5748006805287AD209
:100F1000DFE800F0030C151E2700504603F040F9EF
:100F200052490860012050490860C9E0504603F06A
:100F300040F94E49486002204B490860C0E05046E5
:100F400003F037F949498860032047490860B7E052
:100F5000504603F02EF94549C86004204249086014
:100F6000AEE0504603F025F94049086108692F4971
:100F700002F018FF064603F03AF904462C4A2D4BBE
:100F800003F02DF8CDE906013849C868274902F079
:100F900009FF039003F02BF980461F4A264B03F00C
:100FA0001EF804460D4631498868204902F0FAFED1
:100FB0002E49039048681D4902F0F4FE1F49009035
:100FC00002F0F6FE294902900868184902F0EAFE8C
:100FD0001B49009002F0ECFE0190029902F090FE95
:100FE0008146039902F08CFE804603F000F9064624
:100FF00022462B4602F04CFFCDE90401DDE9062331
:1010000002F046FF34E05AE0400000200038014082
:1010100000440040200000209A9999999999D93F5D
:1010200048000020440000205C02002000004042F4
:101030007B14AE47E17A843F9999B93F0000204183
:101040000000C842080000204465736972655F4172
:101050006E676C653A25660A000000000C000020EF
:101060004C0000205400002050000020700200209E
:10107000CDE9080103F0CEF883461348006818B99B
:101080001248C0F800B016E00F480068012803D1EC
:101090000F48C0F800B00EE00B480068022803D1EA
:1010A0000C48C0F800B006E007480068032802D1E9
:1010B0000948C0F800B000200849086000E000BFFF
:1010C00000BF0BB0BDE8F08F5400002024000020CA
:1010D000280000202C0000202000002050000020CC
:1010E00070B504460D4620B200F0EAFD28B200F0CB
:1010F00023FE70BD2DE9F05F04460D46164600F054
:10110000FCFE814600F0EFFE4742304603F051F806
:101110008246484603F044F88346514602F07AFE80
:1011200080460B4902F044FE2060304603F041F84F
:101130008246384603F034F88346514602F06AFE90
:101140008046034902F034FE2860BDE8F09F0000AD
:101150008470514210B500244FF4E06001F042F871
:1011600000F018FDFFF74CFD00F080FA0520FFF7B6
:10117000EFF90446FFF726FC00F0AFFE00F07CFD1F
:10118000FFF796FCFFF737F800F032F9E0B210BD38
:1011900008B525208DF8000000208DF80100012001
:1011A0008DF802008DF80300684601F020F808BDB4
:1011B00000B585B0FFF7ECFF012144F2040001F017
:1011C00029FC4FF40070ADF8100018208DF81300C2
:1011D00003208DF8120004A9214801F05FF94FF4B3
:1011E0008060ADF8100004208DF8130004A91C489D
:1011F00001F054F94FF4E13000900020ADF8040004
:10120000ADF80600ADF80800ADF80C000C20ADF804
:101210000A006946134802F0B2FB012240F2255150
:10122000104802F044FC01210E4802F034FC05B0E5
:1012300000BD10B540F225510A4802F01DFD30B145
:10124000084802F099FCC4B22046FFF72CFE10BDFE
:1012500010B505A003F074F90CA003F071F910BDEE
:1012600000080140003801400D0A20D5E2CAC7D26B
:10127000BBB8F6B4AEBFDAD6D0B6CFBDD3CAD5BBF5
:10128000D8CFD4CAB5D1E9200D0A00000D0A20C775
:10129000EBD4DAB3ACBCB6D6D5B6CBBBF2D5DFB4A3
:1012A000AEBFDAB5F7CAD4D6FACAD6CAE4C8EBD705
:1012B000D6B7FB200D0A000008B526208DF80000E7
:1012C00000208DF8010001208DF802008DF8030048
:1012D000684600F08CFF08BD00B585B0FFF7ECFF55
:1012E0000121480401F0A3FB0121042001F092FB3D
:1012F0000420ADF8100018208DF8130003208DF89D
:10130000120004A9234801F0C9F80820ADF8100024
:1013100004208DF8130004A91E4801F0BFF84FF413
:10132000165000900020ADF80400ADF80600ADF8AE
:101330000800ADF80C000C20ADF80A00694616480C
:1013400002F01DFB012240F22551134802F0AFFBD1
:101350000121114802F09FFB05B000BD10B540F21D
:1013600025510D4802F088FC50B10B4802F004FCF6
:10137000C4B22146094802F0FBFB2046FFF77FFC80
:1013800010BD10B506A003F0DBF80EA003F0D8F8EE
:1013900010BD00000008014000440040003801403A
:1013A0000D0A20D5E2CAC7D2BBB8F6B4AEBFDAD6B2
:1013B000D0B6CFBDD3CAD5BBD8CFD4CAB5D1E9201A
:1013C0000D0A00000D0A20C7EBD4DAB3ACBCB6D6C8
:1013D000D5B6CBBBF2D5DFB4AEBFDAB5F7CAD4D63B
:1013E000FACAD6CAE4C8EBD7D6B7FB200D0A00006C
:1013F00030B5164800684FF47A72B0FBF2F1B1F1E3
:10140000807F01D301201DE021F07F40401E4FF07E
:10141000E022506150170F22002807DA13071D0E33
:101420000B4B00F00F04241F1D5503E013071C0E87
:10143000084B1C5400BF00204FF0E02290610720B1
:101440001061002008B100BFFEE730BD5C00002045
:1014500018ED00E000E400E02DE9F04104460D46FF
:1014600016461F463B4632462946204600F0CCFA37
:10147000BDE8F08137B504460D4602AB012229468E
:10148000204600F0F9FA00203EBD10B50446234680
:1014900006226B21D02000F05CFB10BD38B504465D
:1014A000032302226B21D020009400F01DFB38BDE5
:1014B00070B504464FF47A7090FBF4F0401EC5B24C
:1014C0002A461921D020FFF7D5FF70BD38B5044654
:1014D000022304221B21D020009400F005FB0020F1
:1014E000032307221B210090D02000F0FDFA38BD15
:1014F00038B50446022304221C21D020009400F0B9
:10150000F3FA0020032307221C210090D02000F0D2
:10151000EBFA38BD38B50446032302221A21D02045
:10152000009400F0E1FA38BD10B5044623460522C8
:101530006A21D02000F00DFB10BD10B504462346F3
:1015400001223721D02000F004FB10BD70B5044605
:1015500001252A2C15D006DC052C0CD00A2C0CD029
:10156000142C16D10BE0622C0DD0BC2C0DD0B4F590
:10157000807F0ED10BE006250DE005250BE004254C
:1015800009E0032507E0022505E0012503E0002529
:1015900001E0032500BF00BFC820FFF7B0F900201D
:1015A000FFF773FF0A20FFF7AAF90320FFF776FF82
:1015B0000A20FFF7A4F94FF47A70FFF779FF0A20A9
:1015C000FFF79DF90320FFF781FF0A20FFF797F946
:1015D0000220FFF78DFF0A20FFF791F9E8B2FFF72D
:1015E00099FF0A20FFF78BF90020FFF79DFF0A20E3
:1015F000FFF785F90120FFF7A0FF0A20FFF77FF929
:10160000002070BD10B5044623460E223B21D02099
:10161000FFF722FF6078217840EA012000B2E081E4
:10162000E078A17840EA012001B221826079217935
:1016300040EA012001B26182607A217A40EA012009
:1016400000B2A082E07AA17A40EA012001B2E182F0
:10165000607B217B40EA012001B22183E079A179FE
:1016600040EA012000B2608310BD000008B50121EE
:10167000082001F0CFF94FF44070ADF800001020C1
:101680008DF8030003208DF802006946F74800F04A
:1016900005FF08BD10B5F548001D006820F0F000FA
:1016A000F249091D08600846006840F030000860F3
:1016B0000120EF490860EF48D0F8240108B9002064
:1016C00010BD0120EA49091F0860FFF705F9002055
:1016D000E849C1F8A401E6488038006808B1002054
:1016E000EEE70120FFF7F8F80020E149091F086044
:1016F0000120E5E710B5DD48001D006820F0F0008E
:10170000DA49091D08600846006840F030000860AA
:101710000020D749091F0860D649C1F8A40101205B
:10172000FFF7DAF80120D249091F0860D149C1F852
:10173000A401FFF7D1F810BD10B50024CB48001D5F
:10174000006820F0F000C949091D086008460068DB
:1017500040F0800008600120C5490860FFF7BCF830
:101760000120C449C1F8A001FFF7B6F80AE0601CE7
:10177000C4B2322C03DDFFF7BDFF002010BD0120F5
:10178000FFF7AAF8BA48803800680028EFD1B849B6
:10179000091F08600120F1E710B50020B449091FB6
:1017A0000860B248001D006820F0F000AF49091D34
:1017B00008600846006840F0300008600020AD492D
:1017C000C1F8A4010120FFF787F80120A849091FEB
:1017D0000860FFF781F80020A649C1F8A00110BDFC
:1017E00010B50020A249091F0860A048001D00682C
:1017F00020F0F0009D49091D08600846006840F08F
:101800003000086001209B49C1F8A401FFF764F88B
:1018100001209749091F0860FFF75EF800209549ED
:10182000C1F8A00110BD70B504469048001D0068C5
:1018300020F0F0008D49091D08600846006840F05E
:101840003000086000208A49091F0860002516E062
:10185000E009874908606006040E0120FFF73CF8A4
:1018600001208449C1F8A001FFF736F80020804923
:10187000091F08600120FFF72FF8681CC5B2082D6A
:10188000E6DB70BD2DE9F04105460E461746984649
:10189000FFF700FF10B90120BDE8F0816906080ECE
:1018A000FFF7C1FFFFF748FF18B9FFF723FF01203B
:1018B000F2E73046FFF7B7FFFFF73EFF00240BE0EB
:1018C00018F80400FFF7AFFFFFF736FF18B9FFF76E
:1018D00011FF0020E0E7641CBC42F1DBFFF70AFFC8
:1018E0000020D9E770B5054600246048001D006857
:1018F00020F0F0005D49091D08600846006840F0CE
:1019000080000860002617E000205949091F086080
:101910000220FEF7E1FF01205649C1F8A001600650
:10192000040E53488038006808B1601CC4B202201D
:10193000FEF7D2FF701CC6B2082EE5DB15B1FFF72B
:101940002BFF01E0FFF74CFF204670BD2DE9F04171
:1019500006460F4614461D46FFF79CFE10B90120AF
:10196000BDE8F0817106080EFFF75DFFFFF7E4FEAA
:1019700018B9FFF7BFFE0120F2E73846FFF753FF23
:10198000FFF7DAFEFFF786FE012101EB4601C8B240
:10199000FFF749FFFFF7D0FE0DE0012C04D1002036
:1019A000FFF7A0FF287003E00120FFF79BFF2870DE
:1019B0006D1C601EC4B2002CEFD1FFF79BFE00200F
:1019C000CEE770B505460E460024FFF763FE2846B5
:1019D000FFF729FF641CFFF7AFFE3046FFF723FF38
:1019E000641CFFF7A9FEFFF755FE691CC8B2FFF79C
:1019F0001AFF641CFFF7A0FE0020FFF773FF0446E8
:101A0000FFF778FE204670BD2DE9F0410746884675
:101A100015461E460024FFF73DFE3846FFF703FF3C
:101A2000FFF78AFE4046FFF7FEFEFFF785FEFFF751
:101A300031FE791CC8B2FFF7F6FEFFF77DFE00BF4E
:101A40000DE0681EA04204D00120FFF74BFF305587
:101A500003E00020FFF746FF3055601CC4B2AC42E3
:101A6000EFDBFFF747FE2046BDE8F081000C0140A8
:101A7000A4812142008021422DE9F04180460D469B
:101A800016461F460024FFF705FE4046FFF7CBFE33
:101A9000FFF752FE2846FFF7C6FEFFF74DFE00BFD8
:101AA00006E0385DFFF7BFFEFFF746FE601CC4B2DC
:101AB000B442F6DBFFF71EFE0120BDE8F08170B5F1
:101AC00005460E46144631462846FFF77AFF207039
:101AD000012070BD37B504460D4602AB01222946F0
:101AE0002046FFF7C9FF3EBD2DE9F843074688466B
:101AF00014461D46089E6A4641463846FFF7DFFFFA
:101B000028B3601CFF2101FA00F0C4F10801294448
:101B1000491EFF220A41104300F0FF09C5F10800E9
:101B200006FA00F0C6B2C4F1070006419DF80000B5
:101B300000EA090000909DF80000304300909DF8F5
:101B4000002041463846FFF7C5FFBDE8F883002076
:101B5000FBE7F8B506460F4614461D466A46394669
:101B60003046FFF7ACFF2DB10120A0409DF80010DA
:101B7000084305E00120A0409DF8001021EA000084
:101B8000C0B200909DF8002039463046FFF7A2FF12
:101B9000F8BD000008B50121102000F03BFF4FF414
:101BA0000050ADF8000010208DF8030003208DF8E0
:101BB00002006946044800F071FC4FF400510248ED
:101BC00000F019FD08BD00000010014008B501211A
:101BD000022000F02CFF01210C2000F01BFFC02090
:101BE000ADF8000018208DF8030003208DF80200E6
:101BF00069466F4800F052FC08BD30B587B000253B
:101C0000002440F2E730ADF814000020ADF81000D9
:101C1000ADF81600ADF8120004A9664801F032F8DC
:101C20006020ADF800000020ADF808000120ADF8FC
:101C30000200ADF8065069465E4801F060F80821E0
:101C40005C4801F0ABFC0120ADF80200ADF80640A5
:101C50006946584801F095F80821564801F0A7FC5C
:101C60000121544801F06AFB07B030BD10B5FFF701
:101C7000ADFFFFF7C2FF10BD08B50121082000F03D
:101C8000C9FE4FF47040ADF8000010208DF803003D
:101C900003208DF802006946474800F0FFFBFFF77C
:101CA000E5FF08BD10B504462146424801F0E0FDBD
:101CB00010BD10B5044621463E4801F0D7FD10BDC9
:101CC00010B50446002C0ADD4FF400413A4800F0FC
:101CD00092FC4FF48041384800F08FFC16E0002C55
:101CE0000ADA4FF40041344800F087FC4FF4804199
:101CF000314800F080FC09E04FF400412E4800F02C
:101D00007CFC4FF480412C4800F077FC002C01DD76
:101D1000204600E0604204B2002C01DA002006E018
:101D2000B4F57A7F02DB40F2E73000E0204604465B
:101D3000A0B2FFF7B7FF10BD10B50446002C0ADDB6
:101D40004FF400511C4800F056FC4FF480511A48E3
:101D500000F053FC16E0002C0ADA4FF4005116484C
:101D600000F04BFC4FF48051134800F044FC09E0B4
:101D70004FF40051104800F040FC4FF480510E48E1
:101D800000F03BFC002C01DD204600E0604204B284
:101D9000002C01DA002006E0B4F57A7F02DB40F285
:101DA000E73000E020460446A0B2FFF782FF10BDF6
:101DB0000008014000040040000C014008B501216A
:101DC000042000F027FE0121082000F023FE03205C
:101DD0008DF8020004208DF803000320ADF8000008
:101DE00069464B4800F05AFBC020ADF80000694638
:101DF000484800F053FB08BD00B587B001210846F4
:101E000000F015FE0020ADF810004FF6FF70ADF8A1
:101E100014000020ADF81600ADF8120004A94FF030
:101E2000804000F02FFF00231A4603214FF080402E
:101E300001F037FB01A801F064FA0A20ADF80C00AC
:101E400001A9400701F0B1F90121880701F03CFD2B
:101E500001221146900701F08CFA0121042000F0C4
:101E6000E6FD0020ADF810004FF6FF70ADF814004D
:101E70000020ADF81600ADF8120004A9264800F0C5
:101E800001FF00231A460321234801F00AFB01A8A1
:101E900001F037FA0A20ADF80C0001A91E4801F044
:101EA00084F901211C4801F00FFD012211461A4856
:101EB00001F05FFA00214FF0804001F0D3FC0121D6
:101EC000880701F03BFA0021134801F0CBFC012107
:101ED000114801F033FA07B000BD10B5FFF76EFFEF
:101EE000FFF78AFF10BD0C492431098809B2484226
:101EF0000021094A2432118070474FF08041898CBB
:101F000009B2484200214FF080429184704700009E
:101F100000080140000C01400008004008B52820DE
:101F20008DF8000000208DF801008DF802000120DE
:101F30008DF80300684600F05AF908BD0EB501217E
:101F4000112000F067FDFFF7E9FF4FF40050ADF8F6
:101F5000080048208DF80B0002A91F4800F09EFAE7
:101F60000D21022000F0B0FB4FF400500090002043
:101F70008DF804000C208DF8050001208DF8060076
:101F8000684600F0ABF90EBD10B5012000F00CFA68
:101F900060B11248006818B100201049086002E0E2
:101FA00001200E490860012000F00FFA10BD10B5A5
:101FB0004FF4005000F0F8F968B10848006818B113
:101FC00000200649086002E00120044908604FF43F
:101FD000005000F0FAF910BD001001405800002038
:101FE0000648804706480047FEE7FEE7FEE7FEE7B3
:101FF000FEE7FEE7FEE7FEE7FEE7FEE7E320000878
:10200000310100080CB50020019000906C48006878
:1020100040F480306A49086000BF6948006800F4F5
:10202000003000900198401C0190009818B9019868
:10203000B0F5A06FF1D16248006800F4003010B133
:102040000120009001E0002000900098012843D179
:102050005C48006840F010005A4908600846006873
:1020600020F0030008600846006840F002000860A5
:1020700053484068524948600846406848600846EE
:10208000406840F4806048600846406820F47C1056
:1020900048600846406840F4E81048600846006818
:1020A00040F08070086000BF4548006800F0007094
:1020B0000028F9D04248406820F0030040494860B9
:1020C0000846406840F00200486000BF3C48406855
:1020D00000F00C000828F9D10CBD10B5FFF792FFF5
:1020E00010BD10B53648006840F001003449086062
:1020F000084640683449084031494860084600684D
:10210000324908402E4908600846006820F48020C3
:1021100008600846406820F4FE0048604FF41F0045
:102120008860FFF7DAFF4FF000602949086010BDB2
:1021300010B5002100200022214B5B6803F00C0148
:1021400021B1042906D0082928D107E0214B224CCF
:10215000236027E01F4B204C236023E0184B5B6873
:1021600003F47010164B5B6803F48032022303EB18
:10217000904022B9194B4343174C23600DE0104B9C
:102180005B6803F4003323B1144B4343124C2360C8
:1021900003E0104B4343104C236003E00D4B0E4C07
:1021A000236000BF00BF064B5B68C3F303130C4CF6
:1021B000E15C094B1B68CB40074C236010BD00005D
:1021C00000100240002002400000FFF8FFFFF6FE72
:1021D00008ED00E000127A005C00002000093D00DC
:1021E0006000002031490143314A1160704770B5E9
:1021F000002100230F22C47804B32D4C246804F47A
:10220000E064C4F5E064210AC1F10403CA404478E3
:1022100004FA03F18478144021430901254C06781F
:10222000A155047804F01F050124AC4005786D1118
:10223000AD0005F1E025C5F8004109E0047804F09F
:102240001F050124AC401C4D0678761145F8264048
:1022500070BD1A4A0A400243154B1B1F1A60704793
:1022600039B1134A121D12680243114B1B1D1A602B
:1022700006E00F4A121D126882430D4B1B1D1A60A7
:102280007047042808D14FF0E021096941F00401AA
:102290004FF0E022116107E04FF0E021096921F0E1
:1022A00004014FF0E0221161704700000000FA05C0
:1022B0000CED00E000E400E080E100E080FFFF1FA3
:1022C000002044490860091D0860091D0860091DB7
:1022D000086041483F4914310860704700213D497A
:1022E0008279002A3AD00A46126803689A430B465C
:1022F0001A600A1D126803689A430B1D1A6002795E
:1023000011440A6803681A430A60324A08321268A4
:1023100003689A432F4B08331A601A1D126803682A
:102320009A432C4B0C331A604279102A0ED11A1F93
:10233000126803681A43274B08331A601A1D126883
:1023400003681A43234B0C331A600DE0214942798C
:1023500011440A6803681A430A6005E002791144CF
:102360000A6803689A430A6070470021016001719E
:102370000C214171002181717047164910310968A3
:102380000143144A10321160704701460020114A7F
:10239000143212680A400AB1012000E000207047A0
:1023A0000C49143108607047014600200022094B97
:1023B0001B6803EA0102074B14331B680B4013B17F
:1023C0000AB1012000E00020704702491431086082
:1023D0007047000000040140FFFF0F0010B50446E5
:1023E000CC48844208D10121042000F02DFB0021BB
:1023F000042000F029FB46E0C748844208D10121AF
:10240000082000F021FB0021082000F01DFB3AE02D
:10241000C248844208D10121102000F015FB0021A0
:10242000102000F011FB2EE0BD48844208D10121AC
:10243000202000F009FB0021202000F005FB22E015
:10244000B848844208D10121402000F0FDFA002163
:10245000402000F0F9FA16E0B348844208D1012187
:10246000802000F0F1FA0021802000F0EDFA0AE06F
:10247000AE48844207D10121801500F0E5FA002121
:10248000A01500F0E1FA10BD10B50121084600F0DA
:10249000DBFA0021012000F0D7FA10BD2DE9F04150
:1024A000024600250026002000230024002791F882
:1024B00003C00CF00F0591F803C00CF0100CBCF138
:1024C000000F03D091F802C04CEA050591F800C056
:1024D000BCF1000F31D0146800202BE04FF0010C4C
:1024E0000CFA00F3B1F800C00CEA03069E4220D1BA
:1024F00083004FF00F0C0CFA03F7BC4305FA03FC02
:102500004CEA040491F803C0BCF1280F06D14FF047
:10251000010C0CFA00FCC2F814C00AE091F803C0E8
:10252000BCF1480F05D14FF0010C0CFA00FCC2F8C9
:1025300010C0401C0828D1D31460B1F800C0BCF111
:10254000FF0F34DD546800202EE000F1080C4FF03E
:10255000010808FA0CF3B1F800C00CEA03069E4229
:1025600021D183004FF00F0C0CFA03F7BC4305FA9E
:1025700003FC4CEA040491F803C0BCF1280F05D118
:1025800000F1080C08FA0CF8C2F8148091F803C0A6
:10259000BCF1480F07D100F1080C4FF0010808FA10
:1025A0000CF8C2F81080401C0828CED35460BDE857
:1025B000F0814FF6FF710180022181700421C1700A
:1025C00070470246002093680B400BB1012000E0E9
:1025D000002070470146886880B27047024600209C
:1025E000D3680B400BB1012000E00020704701468A
:1025F000C86880B2704701617047416170470AB195
:10260000016100E041617047C16070474FF4803262
:102610000A438261816182618269826970470246F0
:102620000020434B18684FF68073184040EA0210B0
:1026300008433F4B186070473E49C8617047F0B58A
:102640000A46002300240021002500F00046B6F1D0
:10265000004F02D1364EF16901E0354E7168C0F38A
:10266000034583B200F44016B6F5401F08D121F0AF
:1026700070612F4E766826F070662D4F7E6012E0F6
:1026800000F48016B6F5801F06D1032606FA05F47D
:10269000A14341F0706106E0460D360103FA06F6EB
:1026A000B14341F0706122B1460D360103FA06F6DE
:1026B000314300F00046B6F1004F02D11C4EF161EB
:1026C00001E01B4E7160F0BD30B500228B071C0F7E
:1026D0000F2303FA04F2164B08338C1053F82430FE
:1026E0009343134C08348D1044F8253023468C1046
:1026F00053F824308C07240F00FA04F423430C4CC5
:1027000008348D1044F8253030BD0A49DC310860AA
:102710007047000000080140000C0140001001401B
:102720000014014000180140001C0140002001403D
:102730000000014000002042DF48006840F0010036
:10274000DD49086008464068DC490840DA494860CD
:1027500008460068DA490840D7490860084600681A
:1027600020F4802008600846406820F4FE0048609D
:102770004FF41F0088607047CF49096821F4803109
:10278000CD4A11601146096821F480211160B0F52D
:10279000803F03D0B0F5802F0ED106E0C64909680E
:1027A00041F48031C44A116007E0C349096841F42B
:1027B000A021C14A116000E000BF00BF704710B502
:1027C00001460022002300204A11012A02D1BA4CFE
:1027D000236806E0022A02D1B74C236A01E0B64C16
:1027E000636A01F01F02012494401C400CB10120D7
:1027F00000E0002010BD38B5002000900024002526
:1028000000BF3120FFF7DBFF05460098401C009019
:102810000098B0F5A06F01D0002DF2D03120FFF765
:10282000CEFF08B1012400E00024204638BD014657
:102830000020A14A106820F0F80040EAC1001060B2
:102840007047A04908607047024600209A4B5868BC
:1028500020F47C1042EA01031843974B58607047FC
:1028600098490866704701460020934A506820F056
:1028700003000843506070478F48406800F00C0028
:102880007047014600208C4A506820F0F000084351
:102890005060704701460020874A506820F4E0608D
:1028A00008435060704701460020834A506820F476
:1028B000605040EAC1005060704729B17E4A527AA8
:1028C00002437D4B5A7204E07B4A527A82437A4B30
:1028D0005A7270477B49D831086070470146002022
:1028E000754A506820F4404008435060704700210A
:1028F000714A20321170704A82F82010012802D0EB
:1029000004280AD104E001216B4A2032117005E04D
:102910000521694A2032117000E000BF00BF7047F6
:102920006949086070476449096A0143624A116253
:102930007047654944390860704730B5002100226E
:10294000002400235C4D6D6805F00C0121B10429C1
:1029500005D0082923D105E05C4D056022E05B4DE0
:1029600005601FE0544D6D6805F47012524D6D689E
:1029700005F48034022505EB92421CB9544D5543B1
:1029800005600BE04C4D6D6805F400351DB1504DF0
:102990005543056002E04D4D5543056002E04B4D47
:1029A000056000BF00BF444D6D6805F0F0010909E6
:1029B000484D6B5C0568DD4045603F4D6D6805F432
:1029C000E061090A434D6B5C4568DD4085603A4D26
:1029D0006D6805F46051C90A3E4D6B5C4568DD4089
:1029E000C560354D6D6805F44041890B3A4D6B5C0F
:1029F000C568B5FBF3F5056130BD29B12E4A5269B2
:102A000002432D4B5A6104E02B4A526982432A4B00
:102A10005A61704729B1284A92690243264B9A614C
:102A200004E0254A92698243234B9A61704729B199
:102A3000214AD2690243204BDA6104E01E4AD2697E
:102A400082431D4BDA61704729B11B4AD2680243A9
:102A5000194BDA6004E0184AD2688243164BDA60F8
:102A6000704729B1144A12690243134B1A6104E0FA
:102A7000114A12698243104B1A617047124940395A
:102A8000086070470F49C86470470B49C8717047A8
:102A90000948406A40F08070074948627047014623
:102AA0000020054A92680A400AB1012000E0002097
:102AB0007047014988727047001002400000FFF81B
:102AC000FFFFF6FE000042428004424200127A00FC
:102AD00000093D00700000208000002010B5044671
:102AE000FE48844208D10121C014FFF7ADFF002148
:102AF000E014FFF7A9FFC4E0B4F1804F08D1012131
:102B00000846FFF7AEFF00210120FFF7AAFFB8E05B
:102B1000F348844208D101210220FFF7A2FF0021DF
:102B20000220FFF79EFFACE0EE48844208D101216D
:102B30000420FFF796FF00210420FFF792FFA0E09A
:102B4000E948844208D101210820FFF78AFF0021CB
:102B50000820FFF786FF94E0E448844208D1012171
:102B60001020FFF77EFF00211020FFF77AFF88E09A
:102B7000DF48844208D101212020FFF772FF0021A5
:102B80002020FFF76EFF7CE0DA48844208D1012163
:102B90004014FFF759FF00216014FFF755FF70E064
:102BA000D548844209D10121C804FFF74DFF002117
:102BB0004FF40020FFF748FF63E0D048844209D17A
:102BC00001210805FFF740FF00214FF48010FFF7B7
:102BD0003BFF56E0CA48844209D101214805FFF76E
:102BE00033FF00214FF40010FFF72EFF49E0C548E6
:102BF000844208D101214020FFF733FF002140200B
:102C0000FFF72FFF3DE0C048844208D1012180201A
:102C1000FFF727FF00218020FFF723FF31E0BB48AB
:102C2000844208D101218015FFF71BFF0021A01568
:102C3000FFF717FF25E0B648844209D101210804B7
:102C4000FFF702FF00214FF48030FFF7FDFE18E090
:102C5000B048844209D101214804FFF7F5FE002164
:102C60004FF40030FFF7F0FE0BE0AB48844208D190
:102C700001218804FFF7E8FE00214FF48020FFF7D0
:102C8000E3FE10BD00220288944B98420ED0994B6F
:102C900098420BD0B0F1804F08D0914B984205D0AC
:102CA000904B984202D0904B984204D14FF68F73CC
:102CB0001A404B881A438D4B984207D08C4B984250
:102CC00004D04FF6FF431A40CB881A4302808B880A
:102CD00083850B880385814B98420BD0854B9842A6
:102CE00008D08B4B984205D08A4B984202D08A4B31
:102CF000984201D10B7A038601238382704770B515
:102D0000002400220023058C4FF6FE763540058412
:102D1000028C8388048B4FF68F752C40B51E2C4097
:102D20000D882C43751E2A400D892A434D882A435D
:102D30006A4DA8420BD06F4DA84208D0744DA842EE
:102D400005D0744DA84202D0734DA84213D14FF65E
:102D5000F7752A404D892A434FF6FB752A408D8826
:102D60002A434FF6FF652B404FF6FF552B408D89C8
:102D70002B43CD892B4383800483CD8885860284B1
:102D800070BD70B5002400220023058C4FF6EF764D
:102D900035400584028C8388048B48F6FF752C40EF
:102DA0004FF6FF452C400D884FF6FF7606EA0525C5
:102DB0002C434FF6DF752A400D8906EA05152A4394
:102DC0004D8806EA05152A43444DA84202D0494DD4
:102DD000A8421DD14FF67F752A404D894FF6FF76E8
:102DE00006EA05152A434FF6BF752A408D8806EA84
:102DF00005152A434FF6FF352B404FF2FF752B4048
:102E00008D8906EA85052B43CD8906EA85052B4386
:102E100083800483CD880587028470BD70B500244B
:102E200000220023058C4FF6FF6635400584028C96
:102E30008388848B4FF68F752C404FF6FC752C40A1
:102E40000D882C434FF6FF552A400D894FF6FF762B
:102E500006EA05252A434D8806EA05252A431F4D23
:102E6000A84202D0234DA8421DD14FF2FF752A403F
:102E70004D894FF6FF7606EA05252A434FF6FF35C2
:102E80002A408D8806EA05252A434EF6FF752B4019
:102E90004DF6FF752B408D8906EA05152B43CD892C
:102EA00006EA05152B4383808483CD8885870284B9
:102EB00070BD70B5002200230024058C4EF6FF760D
:102EC00035400584038C8488828B48F6FF752A4040
:102ED0004FF6FF452A400D8820E00000002C0140FD
:102EE0000004004000080040000C004000100040BA
:102EF0000014004000340140004C014000500140EB
:102F00000054014000180040001C00400020004018
:102F10000040014000440140004801404FF6FF7668
:102F200006EA05252A434DF6FF752B400D8906EA72
:102F300005352B434D8806EA05352B43FA4DA8424B
:102F400002D0FA4DA84208D14BF6FF752C408D896E
:102F50004FF6FF7606EA85152C4384808283CD8860
:102F6000A0F84050038470BD828B4FF2FF331A40AB
:102F70008283828B4FF6FF7303EA01231A43828315
:102F80007047F0B50C461546002200210026078C3C
:102F90004EF6FF7C07EA0C070784828B018C4FF604
:102FA000FF7707EA043640F6FF473A404FF6FF77CF
:102FB00007EA05273A434FF6FF7707EA03373A4314
:102FC000D94FB8420ED0D94FB8420BD0B0F1804F94
:102FD00008D0D74FB84205D0D64FB84202D0D64F0E
:102FE000B84206D14DF6FF77394046F48057394351
:102FF00005E047F6FF57394044F480573943828350
:103000000184F0BD828B4FF6F3731A408283828B6A
:103010000A4382837047F0B50C4615460022002112
:103020000026078C4FF6FF6C07EA0C070784828B9B
:10303000018C4FF6FF7707EA04264FF60C773A40EB
:103040004FF6FF7707EA03172F433A43B64FB842CC
:103050000ED0B64FB8420BD0B0F1804F08D0B44F6D
:10306000B84205D0B34FB84202D0B34FB84206D1F0
:103070004FF6FF57394046F48077394305E04FF269
:10308000FF57394044F48077394382830184F0BD8F
:10309000028B4FF2FF331A400283028B4FF6FF730D
:1030A00003EA01231A4302837047F0B50C46154624
:1030B000002200210026078C4FF6EF7C07EA0C0760
:1030C0000784028B018C4FF6FF7707EA041640F65F
:1030D000FF473A404FF6FF7707EA03373A434FF688
:1030E000FF7707EA05273A438F4FB8420ED08F4F3C
:1030F000B8420BD0B0F1804F08D08D4FB84205D008
:103100008C4FB84202D08C4FB84206D14FF6DF77D1
:10311000394046F01007394305E04FF65F773940F4
:1031200044F01007394302830184F0BD028B4FF64F
:10313000F3731A400283028B0A4302837047F0B58F
:103140000C46154600220021068C4FF6FE773E40C5
:103150000684028B018C4FF60C7632407E1C06EA08
:1031600003162E433243704EB0420ED06F4EB04223
:103170000BD0B0F1804F08D06D4EB04205D06D4EEF
:10318000B04202D06C4EB04206D14FF6FD763140CF
:1031900044F00106314305E04FF6F576314044F046
:1031A0000106314302830184F0BD70B505460C462B
:1031B0005D4885420ED05D4885420BD0B5F1804F09
:1031C00008D05B48854205D05A48854202D05A480B
:1031D000854200D100E000BF208850B92389A28831
:1031E00061882846FFF7ABFFE1882846FFF79EFF7E
:1031F00025E0208804280AD12389A28861882846EE
:10320000FFF753FFE1882846FFF742FF17E02088C9
:1032100008280AD12389A28861882846FFF7FBFE87
:10322000E1882846FFF7EEFE09E02389A28861883D
:103230002846FFF7A6FEE1882846FFF795FE70BDF9
:103240002DE9F04105460C4600260127608808B9A3
:10325000022600E00026A088012801D1022700E014
:1032600001272088A0B92389A28861882846FFF712
:1032700066FFE1882846FFF759FF23893A46314621
:103280002846FFF712FFE1882846FFF701FF13E009
:103290002389A28861882846FFF707FFE18828462E
:1032A000FFF7F6FE23893A4631462846FFF747FFE7
:1032B000E1882846FFF73AFFBDE8F0810A884B888D
:1032C0001A438B881A43CB881A430B891A434B89BC
:1032D0001A438B891A43A0F8442070474FF6FF71B8
:1032E000818000210180C1804180017270470021EE
:1032F000018041808180C180018141818181C181C2
:103300007047002101804180012181800021C1801E
:10331000018170470021018041808180C18001814D
:103320004181818170470000002C01400034014040
:103330000004004000080040000C004021B1028859
:1033400042F00102028004E002884FF6FE731A4048
:103350000280704731B1B0F8442042F40042A0F836
:10336000442005E0B0F84420C2F30E02A0F8442047
:1033700070471AB183890B43838102E083898B43B1
:10338000838170478182704741EA0203A0F8483088
:1033900070471AB183890B43838102E083898B4391
:1033A0008381704701894FF6F8721140018170479F
:1033B0000A46002101894FF68F731940114301819C
:1033C000704730B504460D4629462046FFF7F0FF0A
:1033D000208940F00700208130BD2DE9F0410446EE
:1033E0000D4616461F46602D06D13B46012231464A
:1033F0002046FFF75AFE05E03B46012231462046B3
:10340000FFF79DFE29462046FFF7D2FF208940F0B6
:1034100007002081BDE8F08130B50C46002101890C
:10342000C9B24FF6FF7505EA032515432543294325
:10343000018130BD2DE9F04105460E4617469846FC
:10344000002443463A4631462846FFF7E5FF2C89DB
:103450004FF6F870044044F007044FF68F700440B4
:1034600044F070042C81BDE8F081F0B504460D46AF
:1034700016461F463B46324629462046FFF7CCFFFC
:10348000208940F480402081F0BD01858282704710
:103490000A46002101884FF68F73194011430180BD
:1034A0007047F0B50C4615461E4600210022002349
:1034B0000189028B038C4FF6F877394021434FF690
:1034C000FC473A4040F201173A434FF6DD773B4064
:1034D0004FF6FF7707EA06172F433B43018102832C
:1034E0000384F0BD0A460021018B4FF68F7319400B
:1034F0001143018370470A460021018B48F6FF7390
:1035000019404FF6FF7303EA022319430183704702
:103510000A460021818B4FF68F7319401143818336
:1035200070470A460021818B48F6FF7319404FF619
:10353000FF7303EA022319438183704721B1028894
:1035400042F08002028004E002884FF67F731A4046
:103550000280704721B1828842F00402828004E038
:1035600082884FF6FB731A408280704721B18288AF
:1035700042F00802828004E082884FF6F7731A4016
:103580008280704721B1828842F00102828004E08B
:1035900082884FF6FE731A40828070470A460021E7
:1035A000018B4FF6F77319401143018370470A46A8
:1035B0000021018B4FF2FF7319404FF6FF7303EAAE
:1035C00002231943018370470A460021818B4FF67D
:1035D000F77319401143818370470A460021818B9C
:1035E0004FF2FF7319404FF6FF7303EA02231943AA
:1035F000818370470A460021018B4FF6FB73194007
:103600001143018370470A460021018B4FF6FF33B7
:1036100019404FF6FF7303EA0223194301837047F1
:103620000A460021818B4FF6FB73194011438183B9
:1036300070470A460021818B4FF6FF3319404FF641
:10364000FF7303EA02231943818370470A4600216E
:10365000018B4FF67F7319401143018370470A466F
:103660000021018BC1F30E014FF6FF7303EA022321
:103670001943018370470A460021818B4FF67F73FF
:1036800019401143818370470A460021818BC1F3A1
:103690000E014FF6FF7303EA02231943818370473B
:1036A0000A460021018C4FF6FD7319401143018435
:1036B00070470A460021018C4FF6F77319401143F9
:1036C000018470470A460021018C4FF6DF731940D0
:1036D0004FF6FF7303EA02131943018470470A4649
:1036E0000021018C4FF67F7319404FF6FF7303EAF8
:1036F00002131943018470470A460021018C4FF6DA
:10370000FF5319404FF6FF7303EA02231943018464
:1037100070470A460021018C4FF2FF7319404FF6A3
:10372000FF7303EA02231943018470470A4600210C
:10373000018C4DF6FF7319404FF6FF7303EA023315
:1037400019430184704730B5002301248C40A3B293
:10375000048C9C430484048C02FA01F5ADB22C4322
:10376000048430BD30B5002304248C40A3B2048C03
:103770009C430484048C02FA01F5ADB22C4304840A
:1037800030BD70B5034600200024184618300125CE
:103790008D40ACB21D8CA5431D8409B1082909D107
:1037A00000EB6100056825F07005056005681543AC
:1037B00005600EE00D1FC5F34E052844056825F48D
:1037C000E045056005684FF6FF7606EA02263543B8
:1037D000056070BD21B1028842F00202028004E05F
:1037E00002884FF6FD731A400280704721B10288AB
:1037F00042F00402028004E002884FF6FB731A4094
:103800000280704721B1828842F08002828004E009
:1038100082884FF67F731A408280704702884FF685
:10382000F7731A40028002880A4302807047828838
:103830004FF68F731A40828082880A4382807047D5
:1038400002894FF6F8731A40028102890A43028105
:10385000704702894FF67F731A40028102890A433A
:1038600002817047818470478185704781867047E7
:103870000187704781877047A0F840107047028821
:103880004FF6FF431A40028002880A4302807047C5
:103890000146888E70470146088F70470146888F21
:1038A00070470146B1F8400070470146888C704768
:1038B0000146088D704702460020138A0B400BB169
:1038C000012000E000207047CA430282704730B5F3
:1038D0000246002000230024158A05EA0103958989
:1038E00005EA010413B10CB1012000E0002030BD55
:1038F000CA4302827047000010B50446FB48844268
:1039000009D101218803FFF79FF800214FF480407F
:10391000FFF79AF832E0F648844209D101214804C1
:10392000FFF79FF800214FF40030FFF79AF825E0E9
:10393000F048844209D101218804FFF792F8002160
:103940004FF48020FFF78DF818E0EB48844209D14E
:103950000121C804FFF785F800214FF40020FFF78C
:1039600080F80BE0E548844208D101210805FFF703
:1039700078F800214FF48010FFF773F810BD2DE99F
:10398000F04786B005460E460024A24600BFA14679
:103990000027B08900B100BF2F462C8A4CF6FF707B
:1039A0000440F08804432C82AC894EF6F3100440A6
:1039B000B08831890843718908430443AC81AC8ADB
:1039C0004FF6FF400440B0890443AC8201A8FEF7E3
:1039D000B4FFC648874202D1DDF810A001E0DDF84F
:1039E0000CA0A88900F4004040B10AEBCA0000EB2B
:1039F0000A1031684900B0FBF1F807E00AEBCA0091
:103A000000EB0A1031688900B0FBF1F86420B8FBC4
:103A1000F0F004012009642101FB1089A88900F459
:103A2000004040B1322000EBC900B0FBF1F000F0E3
:103A30000700044308E0322000EB09106421B0FBCA
:103A4000F1F000F00F0004432C8106B0BDE8F087D0
:103A50004FF41651016000218180C18001810C2149
:103A6000418100218181704710B502460020108AF3
:103A70004FF2FF0318400B884C8823438C88234364
:103A8000CC8823431843108210BD0021018041805F
:103A90008180C180704721B1828942F400528281C5
:103AA00004E082894DF6FF731A4082817047F0B5B9
:103AB0000346002400260025002040F66A17B9427C
:103AC00000D100BF1846C1F3421401F01F060127C0
:103AD00007FA06F5012C01D10C3004E0022C01D1CB
:103AE000103000E014301AB107682F43076002E07D
:103AF0000768AF430760F0BD1AB1838A0B43838226
:103B000002E0838A8B4383827047028A4FF6F07308
:103B10001A400282028A0A430282704782894FF267
:103B2000FF731A40828182890A438281704721B1E2
:103B3000828942F00202828104E082894FF6FD739D
:103B40001A4082817047028A4FF6DF731A40028260
:103B5000028A0A430282704721B1028A42F48042FB
:103B6000028204E0028A4BF6FF731A400282704719
:103B7000C1F308028280704701468888C0F30800BC
:103B80007047818941F0010181817047028BD2B277
:103B90000283028B42EA012202837047028B02F405
:103BA0007F420283028B0A430283704721B1828ADB
:103BB00042F02002828204E0828A4FF6DF731A40CC
:103BC0008282704721B1828A42F01002828204E030
:103BD000828A4FF6EF731A408282704721B1828A3F
:103BE00042F00802828204E0828A4FF6F7731A409C
:103BF0008282704721B1828942F40042828103E0CF
:103C00008289C2F30E028281704721B1828A42F416
:103C10000062828204E0828A4FF2FF731A4082823D
:103C20007047828A4FF6FB731A408282828A0A4367
:103C30008282704721B1828A42F00202828204E0CD
:103C4000828A4FF6FD731A40828270470246002036
:103C5000B1F5007F00D100BF13880B400BB10120EC
:103C600000E00020704701F40072B2F5007F00D13F
:103C700000BFCA430280704770B50246002400238B
:103C80000025002040F66A16B14200D100BFC1F302
:103C9000421501F01F03012606FA03F3012D02D19C
:103CA0009689334006E0022D02D1168A334001E0A6
:103CB000968A33400C12012606FA04F41688344022
:103CC00013B10CB1012000E0002070BD10B500223E
:103CD000002340F66A14A14200D100BF0A12012459
:103CE0009440A3B2DC43048010BD000000380140C2
:103CF0000044004000480040004C0040005000409C
:103D0000F0B480EA0102D40F4200B2EB410F02D2BC
:103D10000246084611464A0042D0C30DDDB2C1F347
:103D2000C752AD1A202D35DAC1F3160141F4000255
:103D300004B15242C5F1200602FA06F12A411044AC
:103D4000B3EBD05F23D0C4B1012DA0EBC35009DC8D
:103D5000F0BC4FF0004202EAC352DBB200F50000B3
:103D600000F0F9BA400000F1807000EBC350A0F100
:103D7000807040EAD170490009E0490841EAC07109
:103D8000A0EBC35000F50000400800EBC350F0BCAE
:103D900000F0D8BA6142012202EB4101001BF6E7B4
:103DA000F0BC704781F00041AAE780F00040A7E72F
:103DB00080EA010210B502F00043400022D04A0020
:103DC0001FD0010E01EB1261C0F35600C2F3560280
:103DD00040F4000042F40002A0FB022000047F39FE
:103DE000140400D0401C50EA124001D44000491E87
:103DF000C2B20C0604EBD010401C4008802A02D04E
:103E000003E0002010BD20F00100002900DA0020AE
:103E1000184310BD30B480EA010202F0004530F0D2
:103E2000004221F0004013D090B1C30DD40DC2F375
:103E30001601C0F31600E41A41F4000140F4000238
:103E40007D34914201D3641C00E04900002C02DA69
:103E500030BC002070474FF400000023914201D392
:103E6000891A034340084FEA4101F7D151B1914209
:103E700002D14FF0004105E002D24FF0010101E014
:103E80006FF0010103EBC450284430BC00F05ABA73
:103E90002DE9FE4F804681EA0300C00F0C460090DA
:103EA00021F0004123F00045B8EB0200A94105D202
:103EB0004046214690461C460B46024623F00040F1
:103EC000104347D0270DC7F30A00C3F30A510290ED
:103ED000401A019040286BDAC3F3130040F4801BB2
:103EE0000098924620B10023D2EB030A63EB0B0B40
:103EF00001985946C0F14002504600F002FA0646C9
:103F00000D4650465946019A00F00AFA10EB080097
:103F10006141002487EA115284EAE7731A4340D0D2
:103F2000009A62B3019A012A4FEA075215DC001B7E
:103F300061EB02014FF0004202EA0752CDE9004274
:103F4000001C41F5801132462B4600F041FA03B0C7
:103F5000BDE8F08F40462146F9E7001B61EB020106
:103F6000001C41F5801300185B412018A2F50017D2
:103F700047EB030140EAD570B6196D4111E06D08B9
:103F80004FEA360645EAC0754FEA0752001B61EB5F
:103F90000201001C41F5801149084FEA3000001968
:103FA000514132462B4603B0BDE8F04F00F001BA54
:103FB0000098012240000023D0EB020263EBE07383
:103FC000009821464FEAE074B8EB000061EB040171
:103FD000E9E783F000435BE781F0004158E72DE912
:103FE000FE4F81EA030404F0004421F000410094F4
:103FF0004FF0000B23F0004350EA01045ED052EA78
:1040000003045BD0C3F30A54C1F30A552C44A4F251
:10401000F3340194A0FB0254C1F3130141F4801165
:10402000C3F3130343F4801301FB024400FB034E6C
:10403000840A970A44EA815447EA8357A4FB076835
:1040400002958D0A05FB07854FEA932C04FB0C545F
:104050002705029D4FEA065847EA1637B5EB0805D3
:104060006EEB070C870E920E47EA811742EA831225
:10407000A7FB0201B6EB0B0164EB00042B0D43EA36
:104080000C335E1844EB1C50DA465146E7FB020144
:10409000C5F313044FEA0B3343EA14534FEA0432D7
:1040A000019C43EA0603A4F10C040294009CCDE9B0
:1040B00000B400F08DF903B0BDE8F08F0020014698
:1040C000F9E72DE9F04D81EA030404F0004B21F0FB
:1040D000004514464FF0000A23F0004150EA050263
:1040E00020D054EA01021DD0C5F30A570246C5F399
:1040F0001303C1F31300C1F30A5640F4801543F4CF
:104100008013A7EB0608101BD64608F2FD3873EBA8
:10411000050002D308F1010801E092185B41B8F1F3
:10412000000F03DA00200146BDE8F08D00204FF4B7
:104130008011064684460EE0171B73EB050705D376
:10414000121B63EB050306434CEA010C49084FEAD6
:10415000300092185B4150EA0107EDD152EA0300AA
:1041600012D082EA040083EA0501084305D0101B3F
:10417000AB4106D20122002306E000224FF00043AB
:1041800002E06FF0010253101AEB06004CEB0851ED
:1041900010EB0A0041EB0B01BDE8F04D00F009B94E
:1041A000C10F80EAE0700844CA079623002100F09E
:1041B000D2B896230022114600F0CDB800F000429C
:1041C00020F00040C10DC0F3160040F400007F292C
:1041D00001DA00207047962903DCC1F19601C8403E
:1041E00001E096398840002AF4D04042704700F040
:1041F000004230F000400AD0C10D01F56071C0F3FB
:10420000160042EA0151C2084007114370470020DE
:104210000146704701F0004330B421F0004150EAFC
:10422000010206D00A0DA2F56072C1F31301002A43
:1042300002DC30BC00207047440F44EAC104C100D6
:10424000E01830BC00EBC25000F07CB8002801DB65
:10425000C0F10040002901DBC1F1004181427047FB
:10426000002801DBC0F10040002901DBC1F1004161
:104270008842704730B50B460146002020220124B9
:1042800009E021FA02F59D4205D303FA02F5491B24
:1042900004FA02F52844151EA2F10102F1DC30BD3A
:1042A0002DE9F05F0546002092469B46884606466B
:1042B000814640241BE0284641464746224600F0FE
:1042C00017F953465A46C01A914110D31146184661
:1042D000224600F016F82D1A67EB01084F462246D9
:1042E0000120002100F00DF817EB00094E41201EBF
:1042F000A4F10104DFDC484631462A464346BDE8C6
:10430000F09F202A04DB203A00FA02F100207047D7
:104310009140C2F1200320FA03F319439040704703
:10432000202A06DBCB17203A41FA02F043EAE07379
:1043300006E041FA02F3D040C2F120029140084366
:10434000194670470029A8BF7047401C490008BFA4
:1043500020F00100704710B4B0FA80FC00FA0CF0B5
:1043600050EA010404BF10BC704749B1CCF12004ED
:1043700021FA04F411FA0CF118BF0121214308437A
:10438000A3EB0C01CB1D4FEA00614FEA102042BFA6
:10439000002010BC704700EBC35010440029A4BF9C
:1043A00010BC7047401C490008BF20F0010010BC41
:1043B000704710B5141E73F1000408DA401C41F177
:1043C000000192185B411A4301D120F0010010BD99
:1043D0002DE9F04D92469B4611B1B1FA81F202E00F
:1043E000B0FA80F220329046FFF78BFF04460F466A
:1043F00040EA0A0041EA0B0153465A46084313D0EB
:10440000114653EA010019D0C8F14002504600F0AD
:104410006FF805460E46504659464246FFF771FF73
:10442000084305D0012004E020463946BDE8F08D60
:104430000020054346EAE0762C4337430A9863059B
:10444000E40AA0EB08000022FD0A44EA47540A30BF
:1044500002D500200146E9E7010510196941DDE9AF
:10446000084500196941BDE8F04DA2E7C1F30A52C1
:10447000C1F3130140F2FF3341F480119A4202DA92
:1044800000200146704740F233439A42A2F2334281
:1044900002DC524200F02CB8FFF733BF30B5041EE7
:1044A00071F1000404DB4FF00044404264EB010171
:1044B000141E73F1000405DB1C464FF0004352420A
:1044C00063EB0403994208BF904230BD064C074D90
:1044D00006E0E06840F0010394E8070098471034D4
:1044E000AC42F6D3FBF728FE605300088053000867
:1044F000202A04DB203A21FA02F00021704721FA39
:1045000002F3D040C2F1200291400843194670479F
:1045100070B521F0004303430CD0C1F30A550024C9
:10452000D5EB040564EB0403D617AD1AB34102DBE7
:104530000020014670BD201841EB025170BD000003
:104540000FB4054B10B503A9044A029800F050F9C6
:1045500010BC5DF814FB00000D0C00088400002066
:10456000490050EAC12018BF04204A0D18BF40F08E
:10457000010040F2FF72B2EB515F08BF40F0020051
:10458000012808BF052070472DE9F0414F1E00EBC0
:10459000C7010446D1E9000115461E4637F0060260
:1045A0000DD02A463346FFF71AFD7F1E04EBC703E2
:1045B000D3E90023FFF76CFC37F00602F1D1022F9C
:1045C00025D0042F13D0062F18BFBDE8F0812A464E
:1045D0003346FFF704FDD4E90A23FFF759FC2A46C6
:1045E0003346FFF7FCFCD4E90823FFF751FC2A46C9
:1045F0003346FFF7F4FCD4E90623FFF749FC2A46CB
:104600003346FFF7ECFCD4E90423FFF741FC2A46CC
:104610003346FFF7E4FCD4E90223FFF739FC2A46CE
:104620003346FFF7DCFCD4E90023BDE8F041FFF797
:104630002FBC0122FFF76CBFFFF72ABC024A002003
:104640001107FFF765BF000001FDFFFF02E008C88A
:10465000121F08C1002AFAD170477047002001E0FC
:1046600001C1121F002AFBD1704700002DE9FF5F36
:1046700082B00021DDE90430020DDDF840B00343D3
:1046800018D044F61050A2F2FF324243151411988C
:1046900001281FD0A5EB0B00401C5FEA000A4FF079
:1046A00000064E4FDFF83891B046504615D5CAF196
:1046B000000413E0119801244AA3012801D16FEAF4
:1046C0000B010298119AC0E90031C0E9024206B01C
:1046D000BDE8F09FCBF10000DFE704460021404A2F
:1046E000491842EB0450CDE9001012E0E00707D072
:1046F00032463B4640464946FFF771FC80468946B4
:1047000032463B4610461946FFF769FC06460F46FF
:104710006410002CEAD1DDE90401DDE90023BAF1DF
:10472000000F06DAFFF75BFC42464B46FFF757FCEB
:1047300005E0FFF7C6FC42464B46FFF7C2FC0446C5
:104740000E460022284BFFF7A9FE03D84FF0FF309A
:10475000014607E00022254B20463146FFF798FB33
:10476000FFF784FE102409E0002C0ADB0A22002354
:10477000FFF796FD039B30321A55641E50EA010282
:10478000F2D1641C039AC4F111031444119A012A52
:1047900003D0012208430DD10AE0084304D00020D1
:1047A0004FF0110B119072E7A3EB0B056D1E0DE09E
:1047B0005B4504DD4FF0000205F1010504E003DA7A
:1047C0004FF00002A5F10105002AECD002981199E2
:1047D000C0E90231C0E9004579E70000000014405B
:1047E0000000F03F300000000000F0430000E03F18
:1047F0002DE9FF4F95B09B468946064600250FE2FE
:10480000252877D100242746F84A0121059400E0A5
:10481000044316F8013F203B01FA03F01042F7D1A0
:1048200030782A2811D06FF02F033078A0F13002B1
:10483000092A16D8059A44F0020402EB820203EB1F
:1048400042021044761C0590EFE759F8042B0592BC
:10485000002A03DA504244F40054059044F0020464
:10486000761C30782E2816D116F8010F44F0040477
:104870002A280DD06FF02F023078A0F13003092BD9
:1048800009D807EB870302EB4303C718761CF3E74D
:1048900059F8047B761C30786C280FD006DC4C2845
:1048A00017D068280DD06A2814D104E0742810D0DD
:1048B0007A280FD10DE044F400140AE044F4801487
:1048C00001E044F440147278824202D104F580146D
:1048D000761C761C307866280BD013DC582877D0ED
:1048E00009DC002875D04528F6D04628F4D04728A2
:1048F0001AD19DE118E0632835D0642879D0652865
:1049000012D195E1702873D008DC6728F1D06928AE
:104910006FD06E280DD06F2806D1B5E073282CD04B
:10492000752875D0782874D05A46179990476D1C11
:1049300075E1C4F30250022809D003280DD0D9F83C
:10494000001004280DD00D6009F1040967E1D9F8C1
:104950000010EA17C1E90052F6E7D9F800100D80FF
:10496000F2E70D70F0E719F8041B8DF80010002035
:104970008DF80100EA46012003E059F804AB4FF03E
:10498000FF3061074FF0000102D40DE008F1010192
:104990008846B9420FDA8045F8DB1AF8081000297A
:1049A000F4D108E008F1010188468142FADB1AF8E7
:1049B00008100029F6D105985B46A0EB08072146B0
:1049C0003846179A00F094FA284400EB080507E0EF
:1049D0004DE029E10DE01AF8010B5A46179990476E
:1049E000B8F10108F7D25B4621463846179A13E121
:1049F00042E00A220092C4F302524FF0000A022A57
:104A000008D059F804CB032A4FEAEC710AD00DE024
:104A100029E02AE009F1070121F00702F2E802C1CA
:104A2000914609E00FFA8CFC4FEAEC71042A03D19D
:104A30004FFA8CFC4FEAEC71002907DA0A46002194
:104A4000DCF1000C61EB02012D2202E0220504D50D
:104A50002B228DF80420012203E0E20701D020225E
:104A6000F7E7904659E00A2102E010220DE01021FC
:104A70004FF0000A00910BE010224FF0000A44F0C2
:104A800004040827009203E008224FF0000A009275
:104A9000C4F30252022A05D059F804CB0021032A9C
:104AA00008D009E009F1070121F00702F2E802C18C
:104AB000914605E01FFA8CFC042A01D10CF0FF0C92
:104AC0004FF00008220728D5702806D0009B83F0FD
:104AD000100353EA0A0305D00EE040228DF80420AB
:104AE000012208E05CEA010206D030228DF80420A1
:104AF0008DF8050002229046009B83F0080353EADC
:104B00000A030AD15CEA010201D1620705D530220D
:104B10008DF804204FF001087F1E582804D034A0DF
:104B200003900EA802900DE036A0F9E753466046C8
:104B3000009AFFF7B5FB84460398825C0298401EFA
:104B4000029002705CEA0100F0D1029806A9081AEE
:104B500000F1200A600702D524F4803400E0012728
:104B6000574502DDA7EB0A0000E0002000EB0A0138
:104B7000009005984144401A0590E00306D45B4636
:104B80002146179A059800F0B3F90544002706E07E
:104B900001A85A46C05D179990476D1C7F1C474578
:104BA000F6DBE0030CD55B462146179A059800F02A
:104BB0009FF9054404E030205A46179990476D1C30
:104BC0000099481E00900029F5DC08E0029802993F
:104BD0005A460078491C0291179990476D1CBAF10A
:104BE0000001AAF1010AF1DC65E1000009280100D9
:104BF0003031323334353637383961626364656653
:104C00000000000030313233343536373839414214
:104C1000434445460000000000F058F90544761C66
:104C2000307800287FF4ECAD19B02846BDE8F08F4D
:104C3000620700D4062709F1070222F0070CFCE8FE
:104C40000223E14603F000485FEA080C02D00FF2AD
:104C5000702C0DE05FEA045C02D50FF2682C07E0CF
:104C60005FEAC47C02D00FF2602C01E0AFF2700C5E
:104C70004FF0FF3823F00043CDF850C065280CD02A
:104C800006DC452809D046281DD047283DD13DE007
:104C9000662818D067287ED138E00021112F01DB6B
:104CA000112000E0781CCDE9000106A90EA8FFF74D
:104CB000DDFCDDE90F010E9A03910021009207F15E
:104CC000010A04914DE04FF000400097CDE901103A
:104CD00006A90EA8FFF7CAFCDDE90F0203920E9B9E
:104CE00011990022DDF80CA00093049211B9791CEF
:104CF00000EB010AB7EB0A0004D4C0F1FF3007F162
:104D0000010A0490AAEB0700019044E0012F00DAA9
:104D100001270021112F01DD112000E03846CDE9E7
:104D2000000106A90EA8FFF7A1FCDDE90F010E9A0C
:104D30000391002104910092BA4621070CD40399F3
:104D4000514500DA8A46BAF1010F05DD009AAAF151
:104D50000101515C302908D0B84202DA10F1040F89
:104D600006DA0121CDE9011015E0AAF10101E9E718
:104D7000002805DC049901440491AAEB000102E03B
:104D8000411C514500DD8A460499401A401C01909F
:104D90004FF000400290200704D40198504501DBF9
:104DA000CDF8048000208DF84F0002980DF14F07D8
:104DB000B0F1004F25D02B200E9002984FF0020842
:104DC00000280CDA404202902D200E9007E00A21C4
:104DD0000298FFF74FFA3031029007F8011DB8F141
:104DE0000001A8F10108F2DC02980028EFD1791E39
:104DF0000E980870307800F0200040F0450007F869
:104E0000020D12A8C01B00F107081498007800B129
:104E1000012000EB0A01019801EBE0710598414483
:104E2000401A401E0590E00306D45B462146179ABF
:104E3000059800F05DF805441498007818B15A46BA
:104E4000179990476D1CE00324D55B462146179ABD
:104E5000059800F04DF805441CE00498002807DB95
:104E6000DDE90301884203DD0098405C179901E009
:104E7000179930205A469047049805F10105401CC7
:104E800004900198401E019004D12E205A46179993
:104E900090476D1CBAF10001AAF1010ADDDC05E0C2
:104EA00017F8010B5A46179990476D1CB8F100018D
:104EB000A8F10108F4DC5B462146179A0598ABE699
:104EC0002D0000002B000000200000002DE9F04123
:104ED000044600251E461746880404D405E03946DA
:104EE0002020B0476D1C641EF9D52846BDE8F0812E
:104EF0002DE9F041044600251E469046C80301D521
:104F0000302700E02027880404D505E041463846D4
:104F1000B0476D1C641EF9D52846BDE8F08100003D
:104F20002DE9F84F04460D4621F0004000917349E9
:104F3000814211DC7249884201DC06D12CB1204645
:104F40002946BDE8F84FFFF774BB6E48002DCCBF73
:104F50006D496E49BDE8F88F6D49814211DD6D499B
:104F60008142D8BF4FF0FF366DDD20462946FFF75E
:104F7000F7FA042808BFFFF761FB20462946BDE881
:104F8000F88F6549654F25F00045814233DD64495E
:104F9000814219DD002632464FF0804320462946E3
:104FA000FEF776FF80468A46012220462946FFF713
:104FB000AFFA00223B46FFF70CF842465346FFF794
:104FC00080F804460D463EE001260022BA463B46E4
:104FD00020462946FEF75CFF80460F4600225346D6
:104FE00020462946FEF7F5FF42463B46FFF769F8A3
:104FF00004460D4627E04B4981421BDDDFF828A11E
:1050000002260022534620462946FEF7E8FF0022EA
:105010003B46FEF73DFF80460F46002253462046A2
:105020002946FEF7D6FF42463B46FFF74AF80446BC
:105030000D4608E0032622462B4600203B49FFF799
:1050400040F804460D4622462B4610461946FEF708
:10505000C6FF8B46824602460B46FEF7C0FF074658
:105060000246334888460B4606217844FFF78CFAFF
:1050700052465B46FEF7B3FF82462E488B463A46C1
:10508000434605217844FFF77FFA3A464346FEF748
:10509000A6FF02460B46002E504659460CDAFEF794
:1050A000F7FE22462B46FEF79AFF01B022462B461A
:1050B000BDE8F04FFEF790BFFEF7EAFE22462B4612
:1050C000FEF78DFF1C4A7A4402EBC603D3E90023A6
:1050D000FEF77FFF22462B46FEF77BFF174A7A44F6
:1050E00002EBC603D3E90023FEF776FF009A002AFD
:1050F000B8BF81F00041BDE8F88F00000000104407
:105100000000F07F182D4454FB21F93FFB21F9BF2B
:105110000000DC3F0000203E0000F33F0000F03FB5
:105120000000E63F008003400000F83F0000F0BFB1
:10513000BA0200007802000016020000DE01000042
:105140002DE9F04D9446CCF1000423F000464CEAE2
:105150000404524F46EAD4749A46884621F000422D
:10516000BC4206D8454240EA050442EAD474BC4237
:1051700004D9BDE8F04D6246FFF75EBAAAF140558A
:10518000A5F17F6555EA0C040BD0022404EAAA7449
:10519000434DDFF810E144EAD87452EA000B04D022
:1051A0000CE0BDE8F04DFFF7BBBE002C14BF012C96
:1051B000BDE8F08D022C30D0032C32D056EA0C0B17
:1051C0000AD0BE4220D1BA4209D126F0804622F050
:1051D00080423346114617E000291ADB25E0DFF84C
:1051E000C8B0FB44002C04BFDBE90001BDE8F08D32
:1051F000012C02BFDBE9000181F00041BDE8F08D28
:10520000022C0AD0032C0CD0BA4212D1B8F1000FF4
:105210000BDA23482549BDE8F08D28462449BDE82E
:10522000F08D28467146BDE8F08D1D482149BDE846
:10523000F08D921B12153C2AC4BF19481D490EDC83
:10524000BAF1000FBEBF12F13C0F0020014606DB91
:105250006246FEF736FF21F00041FFF761FE002CA9
:1052600008BFBDE8F08D012C04BF81F00041BDE80E
:10527000F08D114A114B022C07D0FEF7AAFE2A46E8
:10528000BDE8F04D0A4BFEF7A4BEFEF7A2FE2A468B
:10529000BDE8F04D064BFEF79FBE00000000F07F1A
:1052A000182D4454FB2109C072010000FB21F9BFF5
:1052B000FB210940FB21F93F075C143326A6A13CE2
:1052C0004FBB610567ACDD3F182D4454FB21E93F1E
:1052D0009BF681D20B73EF3F182D4454FB21F93F0D
:1052E000E2652F227F2B7A3C075C143326A6813C93
:1052F000BDCBF07A8807703C075C143326A6913C3E
:10530000C4EB98999999C9BF711623FEC671BCBFA9
:105310006D9A74AFF2B0B3BF9AFDDE522DDEADBF11
:105320002F6C6A2C44B4A2BF0D5555555555D53F29
:10533000FF8300922449C23F6E204CC5CD45B73F44
:10534000513DD0A0660DB13FEB0D76244B7BA93FBC
:1053500011DA22E33AAD903F0000000000000000A7
:105360008053000800000020880000004C46000820
:105370000854000888000020000600005C46000871
:10538000000000000000000000000000000000001D
:10539000000000000000000000000000000000000D
:1053A000000080C0000000000000000000000000BD
:1053B00000000000000000000000000000000000ED
:1053C00001000000000000000000000000000000DC
:1053D00000000000000000000100000000A24A04DC
:1053E0000000000000000000010203040607080995
:1053F000000000000102030401020304060708097B
:08540000020406080000000090
:0400000508000131BD
:00000001FF
